:020000040800F2
:1000000000500020E1210008B91F0008BB1F0008B4
:10001000BD1F0008BF1F0008C11F0008000000002E
:10002000000000000000000000000000C31F0008E6
:10003000C51F000800000000C71F0008C91F0008F6
:100040002922000829220008292200082922000864
:10005000292200082922000829220008CD1F0008B3
:10006000252000087D2000082922000829220008F8
:100070002922000829220008292200082922000834
:100080002922000829220008F92000082922000856
:100090002922000829220008292200082922000814
:1000A0002922000829220008292200082922000804
:1000B00029220008292200082922000829220008F4
:1000C00029220008292200082922000829220008E4
:1000D00029220008052100082922000829220008F9
:1000E0002922000829220008292200080000000017
:1000F0000000000000000000000000000000000000
:0C01000000000000000000005FF808F1A3
:10010C0010B5054C237833B9044B13B10448AFF345
:10011C0000800123237010BD0C00002000000000A3
:10012C008422000808B5034B1BB103490348AFF305
:10013C00008008BD00000000100000208422000890
:10014C0038B50E4B054618784FF47A73B3FBF0F3C1
:10015C000B4A1068B0FBF3F000F0CEFA044658B925
:10016C000F2D09D8024629464FF0FF3000F082FAD5
:10017C00044B20461D6038BD012038BD0000002016
:10018C000800002004000020074A08B5136803206B
:10019C0043F01003136000F05BFA0020FFF7D0FF70
:1001AC0001F078FE002008BD00200240034A044BF9
:1001BC0011681B780B441360704700BF640000206B
:1001CC0000000020014B1868704700BF640000203D
:1001DC000368D86C70477047036810B55A680446BA
:1001EC00900627D51A68910724D5A26AD2065EBF5D
:1001FC00A26A42F40072A2629A6802F46022B2F51A
:10020C00602F10D1227B72B95A6822F020025A60FA
:10021C00A36A23F48073A362A36ADB045EBFA36AA0
:10022C0043F00103A362204601F076FD6FF0120249
:10023C0023681A6023685A68100630D51A6851076B
:10024C002DD5A26AD2065EBFA26A42F40052A26207
:10025C009A6802F4E042B2F5E04F0AD05A685005B1
:10026C0016D49A6802F46022B2F5602F10D1227B6A
:10027C0072B95A6822F080025A60A36A23F4805340
:10028C00A362A36AD9055EBFA36A43F00103A3620C
:10029C00204600F0DBF96FF00C0223681A6023682B
:1002AC005A6852060DD51B68DB070AD5A36A20468F
:1002BC0043F48033A362FFF78EFF6FF001022368D3
:1002CC001A6010BD002373B5019390F82430012BF4
:1002DC0074D001234D6880F82430062D02684FEA53
:1002EC0085030C6825D82B441F25566B053B9D4078
:1002FC0026EA050504FA03F32B435363092C4FEA52
:10030C0044038D682FD907262344D1681E3B9E4099
:10031C0021EA060105FA03F30B43D360A4F11003A1
:10032C00012B2BD90023002280F82420184602B080
:10033C0070BD0C2D0BD82B441F25166B233B9D40F9
:10034C0026EA050504FA03F32B431363D6E72B4483
:10035C001F25D66A413B9D4026EA050504FA03F3A6
:10036C002B43D362CAE70726116923449E4021EA36
:10037C00060105FA03F30B431361CFE7104B9A42C6
:10038C0016D193681B02CDD49368102C43F4000350
:10039C009360C7D10B4B0C4A1B68B3FBF2F20A23D8
:1003AC0053430193019B002BBCD0019B013BF8E70D
:1003BC00836A43F0200383620123B4E70223B5E789
:1003CC00002401400800002040420F00002373B5B8
:1003DC000193036804469A68D20702D5002002B044
:1003EC0070BD9A6842F001029A60124B124A1B6867
:1003FC00B3FBF2F30193019BC3B9FFF7E3FE06468F
:10040C0023689D6815F00105E8D1FFF7DBFE801B22
:10041C000228F5D9A36A84F8245043F01003A36290
:10042C00E36A012043F00103E362D8E7019B013B3F
:10043C00E0E700BF0800002040420F0090F8243095
:10044C0010B5012B044658D0012380F82430FFF757
:10045C00BDFF00284DD1A36A294A23F4706323F011
:10046C00010343F48073A3622368934204D12549AA
:10047C004A6812F4702F32D1A26A22F48012A2625E
:10048C005A68520541BFA26A22F4405242F480528B
:10049C00A262A26A12F480521CBFE26A22F0060227
:1004AC00E262002284F824206FF002021A605A687B
:1004BC0042F020025A609A6802F46022B2F5602F72
:1004CC0013D10F4A934205D1A2F58062526812F4FF
:1004DC00702F0AD19A6842F4A0029A6010BDA26AE9
:1004EC0042F48012A2624A68CBE79A6842F4801206
:1004FC00F3E7002384F8243010BD022010BD00BFA8
:10050C00002801400024014038B5036804469A686D
:10051C00D20701D4002038BD9A6822F001029A60FB
:10052C00FFF750FE054623689B68DB07F2D5FFF703
:10053C0049FE401B0228F6D9A36A012043F01003A0
:10054C00A362E36A43F00103E36238BD70B504466D
:10055C00002871D0836A23B9C36280F8243001F07B
:10056C00BBFC2046FFF7D0FFA36A13F0100FA36A61
:10057C0064D1002862D1E16923F48853626823F0C6
:10058C00020343F002030A43A168A362237BB1F583
:10059C00807F42EA430238D0012914BF06464FF44B
:1005AC008076257D012D07D1002B30D1A369013B2D
:1005BC0046EA433545F400662368B1F5807F5D68F3
:1005CC0025F4694545EA06055D609E681D4D05EA02
:1005DC00060545EA02059D6001D0012920D121695B
:1005EC0001390905DD6A25F470052943D96299683A
:1005FC00154B0B409A4215D10023E362A36A23F0FA
:10060C00030343F00103A36270BD0E46C9E7A36A5E
:10061C0043F02003A362E36A43F00103E362CBE7F8
:10062C000021DFE7A36A23F0120343F01003A36257
:10063C00E36A43F00103E362012070BD43F0100351
:10064C00A362F9E7FDF7E1FFFE0E1FFF7047000004
:10065C00074A0002D36800F4E06023F4E0631B0453
:10066C001B0C43F0BF6343F400330343D360704768
:10067C0000ED00E0174B30B5DC68C4F30224C4F184
:10068C000703251D042B28BF0423062D4FF001055D
:10069C0098BF002405FA03F303F1FF3388BF033C32
:1006AC001940A14005FA04F4013C2240002842EA1A
:1006BC0001024FEA0212A9BF00F16040064BD2B210
:1006CC0000F56140BBBF00F00F00D2B280F80023F0
:1006DC001A5430BD00ED00E014ED00E0002808DBFA
:1006EC000123420900F01F0003FA00F0014B43F80C
:1006FC002200704700E100E00138B0F1807F0AD29F
:10070C00F021064B064A586082F82310002007227D
:10071C0098601A6070470120704700BF10E000E03D
:10072C0000ED00E090F8213010B5022B03D004232B
:10073C008363012010BD03681A6822F00E021A6050
:10074C001A6822F001021A60184A93421FD0143220
:10075C0093421ED0143293421DD0143293421DD0BA
:10076C00143293421DD0143293420CBF4FF48013B9
:10077C004FF080730E4A00245360012380F821301F
:10078C00436B80F820407BB19847204610BD012375
:10079C00F0E71023EEE74FF48073EBE74FF4805350
:1007AC00E8E74FF48033E5E7184610BD0800024037
:1007BC00000002402DE9F74F00242646664BDFF877
:1007CC00A8E1DFF8A8C10A6832FA06F502D103B035
:1007DC00BDE8F08F4FF0010808FA06F802EA0802AB
:1007EC0090457FD14D68122D00F0AA8000F28380D5
:1007FC00022D00F0A28077D8002D00F08980012D09
:10080C0000F099804FF00F09FF2A93BF824606F142
:10081C008045083DD0F800B092BFB500D0F804B0C8
:10082C00AD0009FA05F82BEA080804FA05F588BFAB
:10083C0000F1040A48EA0505CAF80050D1F804A0F2
:10084C001AF0805F4ED0454D444FAD6926F0030839
:10085C0045F00105BD61BD6908F1804805F0010551
:10086C00019508F5803806F0030B019D4FEA8B0BC0
:10087C00D8F8085009FA0BF925EA0909384DA842AD
:10088C0063D005F58065A84261D005F58065A84266
:10089C005FD005F58065A8420CBF0325042505FA39
:1008AC000BF545EA0905C8F808501D681AF4803F95
:1008BC0014BF154395431D605D681AF4003F14BFC7
:1008CC00154395435D609D681AF4801F14BF154352
:1008DC0095439D60DD681AF4001F14BF2A4325EA76
:1008EC000202DA6001366EE7032D22D0112D89D178
:1008FC00CC68043486E71B4FBD4209D012D8DFF810
:10090C0070904D4504D009F580394D457FF47AAF90
:10091C008C68C4B1012C0CBFC0F81080C0F81480D6
:10092C0008246FE77545F3D06545F1D0DFF84490A6
:10093C00EBE7002466E7CC6864E7CC68083461E731
:10094C00CC680C345EE704245CE70025A7E701259E
:10095C00A5E70225A3E700BF0004014000100240F8
:10096C00000801400000211000003110000032107E
:10097C0000001110000022108368194214BF0120DE
:10098C00002070470AB1016170470904FBE7C36896
:10099C000B4214BF416101617047704708B5044BAD
:1009AC005969014202D05861FFF7F7FF08BD00BF3B
:1009BC00000401402DE9F341054608B901203CE053
:1009CC000368DB0710D42B689F075DD42B681907CD
:1009DC0000F194802B685A0700F1BE80E86900286A
:1009EC0040F02C81002028E08F4C636803F00C034E
:1009FC00042B07D0636803F00C03082B09D1636840
:100A0C00DE0306D523689C03DDD56B68002BDAD199
:100A1C00D4E76B68B3F5803F12D1236843F480337D
:100A2C002360FFF7CFFB064623689803CBD4FFF770
:100A3C00C9FB801B6428F7D9032002B0BDE8F08104
:100A4C009BB9236823F480332360236823F4802329
:100A5C002360FFF7B7FB064623689903B3D5FFF76E
:100A6C00B1FB801B6428F7D9E6E7B3F5A02F236808
:100A7C0003D143F480232360CFE723F48033236036
:100A8C00236823F48023CBE7674C636813F00C0FC7
:100A9C0007D0636803F00C03082B10D16368DA03EA
:100AAC000DD423689B0702D52B69012B86D12368B3
:100ABC006A6923F0F80343EAC203236086E72A69D4
:100ACC005A4B6AB101221A60FFF77CFB0646236879
:100ADC009F07ECD4FFF776FB801B0228F7D9ABE716
:100AEC001A60FFF76FFB0646236898077FF56EAF19
:100AFC00FFF768FB801B0228F6D99DE7AA694A4CD0
:100B0C004B4BDAB101221A60FFF75CFB0646636AB5
:100B1C009B070DD54FF4FA52464B1B68B3FBF2F30F
:100B2C00019300BF019B5A1E0192002BF9D151E792
:100B3C00FFF748FB801B0228E9D97DE71A60FFF715
:100B4C0041FB0646636A9F077FF544AFFFF73AFB0C
:100B5C00801B0228F6D96FE7334CE369D80024D404
:100B6C000127E36943F08053E361E36903F08053A9
:100B7C000093009B304E3368D90518D5EB68012BD8
:100B8C0026D1236A43F001032362FFF71BFB41F2DA
:100B9C0088368046236A9B073FD5002F3FF41EAF53
:100BAC00E36923F08053E36118E70027E2E7336839
:100BBC0043F480733360FFF705FB80463368DA0536
:100BCC00DCD4FFF7FFFAA0EB08006428F6D933E772
:100BDC00ABB9236A41F2883823F001032362236AFC
:100BEC0023F004032362FFF7EDFA0646236A980705
:100BFC00D3D5FFF7E7FA801B4045F7D91CE7052B47
:100C0C00236A03D143F004032362BAE723F0010300
:100C1C002362236A23F00403B6E7FFF7D3FAA0EBB1
:100C2C000800B042B6D907E700100240000042426B
:100C3C008004424208000020007000402A4B5A6891
:100C4C001C4602F00C02082A3DD00023274E022835
:100C5C0033602BD1FFF7B6FA0746236899011FD4EE
:100C6C002B6AB3F5803F05D16268A96822F4003283
:100C7C000A436260696A62680B4322F4741213437C
:100C8C00636001233360FFF79DFA054623689A01E0
:100C9C003FF5A8AEFFF796FA401B0228F6D9CBE633
:100CAC00FFF790FAC01B0228D7D9C5E6FFF78AFADE
:100CBC00054623689B017FF595AEFFF783FA401B31
:100CCC000228F6D9B8E601283FF4B7AE58682B6A6B
:100CDC0000F480329A427FF471AE6B6A00F47010AB
:100CEC00C01A18BF0120A8E6001002406000424262
:100CFC0030B5194B87B002AC03F1100522461868C9
:100D0C005968083303C2AB421446F7D101238DF85E
:100D1C000430022311498DF805304B6803F00C02A6
:100D2C00082A17D1C3F3834206A80244DB0312F846
:100D3C00102C0CD54B680A48C3F34043504306AA09
:100D4C00134413F8143CB0FBF3F007B030BD054866
:100D5C005043FAE70248F8E79C22000800100240D2
:100D6C0000127A0000093D002DE9F0410D460446C1
:100D7C0010B90120BDE8F081454A136803F0070360
:100D8C008B4229D321688E0731D4CA0744D4404AF8
:100D9C00136803F007039D4267D322683D4D12F0A0
:100DAC00040F6ED1130706D56B68226923F46053C8
:100DBC0043EAC2036B60FFF79BFF6B68364AC3F3D1
:100DCC000313D35CD840354B1860354B1868FFF7CC
:100DDC00B7F90020BDE8F081136823F007030B433B
:100DEC001360136803F007039942C2D1CAE7294B79
:100DFC0011F0040F1EBF5A6842F4E0625A600807F3
:100E0C0042BF5A6842F460525A605A68A06822F095
:100E1C00F00202435A60B8E762681E4E012A33683A
:100E2C001BD113F4003FA4D0736841F2883823F02F
:100E3C00030313437360FFF7C5F9074673686268D1
:100E4C0003F00C03B3EB820FA1D0FFF7BBF9C01B6F
:100E5C004045F3D90320BDE8F081022A02D113F0FA
:100E6C00007FE0E713F0020FDDE7136823F00703C0
:100E7C002B431360136803F007039D427FF479AF93
:100E8C008BE76B68E16823F4E0630B436B6089E7E5
:100E9C0000200240001002409223000808000020AD
:100EAC0004000020044B054A5B68C3F30223D35CA7
:100EBC00034A1068D840704700100240A223000873
:100ECC0008000020044B054A5B68C3F3C223D35CC3
:100EDC00034A1068D840704700100240A223000853
:100EEC000800002003682DE9F341D907054620D5F9
:100EFC00354CE369DA0032D40127E36943F08053BF
:100F0C00E361E36903F080530193019B2F4E336837
:100F1C00DB0526D5236A13F4407336D1236A6A683D
:100F2C0023F44073134323621FB1E36923F080530E
:100F3C00E3612868830706D5234AA968536823F41C
:100F4C0040430B43536010F010001BD01E4AE9685D
:100F5C005368002023F480030B43536012E00027F6
:100F6C00D4E7336843F480733360FFF72BF9804682
:100F7C003368D805CED4FFF725F9A0EB0800642818
:100F8C00F6D9032002B0BDE8F0816A6802F4407221
:100F9C009342C3D001200E4A236A1060002023F430
:100FAC00407110602162D907B8D5FFF70BF941F2F7
:100FBC0088380646236A9A07B0D4FFF703F9801BDA
:100FCC004045F7D9DDE700BF00100240007000403B
:100FDC00400442420368DA6822F49072DA605A697B
:100FEC0022F001025A61202380F83A307047000049
:100FFC0038B505460368C1681A69192422F44052B1
:10100C000A431A6182680069D9680243686921F44D
:10101C00B05121F00C0102430A43DA605A69A96904
:10102C0022F440720A435A610D4A934214D1FFF7DD
:10103C0049FF60436C686422A400B0FBF4F0B0FB81
:10104C00F2F402FB14031B013233B3FBF2F32968F5
:10105C0003EB04138B6038BDFFF724FFE9E700BFF7
:10106C000038014010B5044640B390F8393003F015
:10107C00FF021BB980F8382000F05CFF24232268A3
:10108C0084F83930D368204623F40053D360FFF73B
:10109C00AFFF236800201A6922F490421A615A6942
:1010AC0022F02A025A61DA6842F40052DA602023F4
:1010BC00E06384F8393084F83A3010BD012010BD5B
:1010CC0090F83930202B18D1A9B1A2B190F8383052
:1010DC00012B12D0C2848284002321220162016878
:1010EC00C36380F83920CA6880F8383042F0800237
:1010FC00CA6018467047012070470220704790F86C
:10110C003A30202B20D1E9B1E2B190F83830012BE4
:10111C001AD0C285828500232222C36380F83A202C
:10112C0002688162D16880F8383041F48071D160F6
:10113C005169184641F001015161D16841F020011B
:10114C00D1607047012070470220704790F83A3008
:10115C0010B5222B36D183680169B3F5805F026824
:10116C00836A23D15268E9B9C2F3080223F8022B2F
:10117C008362C48D013CA4B2C4858CB90368DA685F
:10118C0022F02002DA60DA6822F48072DA605A699E
:10119C0022F001025A61202380F83A3000F0ECFD75
:1011AC00002010BDD2B223F8012BE1E721B9591C64
:1011BC00526881621A70DCE75268591C816202F035
:1011CC007F02F7E7022010BD70470000036870B57E
:1011DC001A6804461607D9685D6907D196065AD570
:1011EC008D0658D5BDE87040FFF7B0BF15F001056E
:1011FC0002D111F4907F4ED0D30705D5CE0542BF56
:10120C00E36B43F00103E363500704D51DB1E36BBB
:10121C0043F00203E363930704D51DB1E36B43F082
:10122C000403E363160704D51DB1E36B43F0080315
:10123C00E363E36B002B66D0950604D5880602D5D4
:10124C002046FFF783FF236820465D69E26B110798
:10125C0002D415F040051AD0FFF7BCFE23685A697A
:10126C00520610D55A69606B22F040025A6150B197
:10127C00254B4363FFF756FA002844D0606BBDE85A
:10128C007040436B18472046FFF79EFF70BDFFF779
:10129C009BFFE56370BD160627D50D0625D594F882
:1012AC003920212A2FD1A268B2F5805F226A17D18A
:1012BC001188C1F308015960216979B9023222629F
:1012CC00E28C013A92B2E284EAB9DA6822F0800246
:1012DC00DA60DA6842F04002DA6070BD0132EEE7A3
:1012EC00511C216212785A60EAE750060BD54A0667
:1012FC0009D5DA68204622F04002DA60202384F80F
:10130C00393000F075FD70BD1913000808B50023C5
:10131C00406AC385C384FFF757FF08BD282210B568
:10132C0094B00DEB0200002100F09EFF142200216E
:10133C000DEB020000F098FF0021102201A800F034
:10134C0093FF4FF48033022401220B9312934FF43A
:10135C00E0130AA80A920E9213931194FFF72AFB3A
:10136C000F234FF4806205930023214605A80793B1
:10137C00089209930694FFF7F7FC4FF4004301A879
:10138C0001940393FFF7AEFD14B010BD2DE9F04F9F
:10139C0093B0FEF7F9FEFFF7C1FF102200210EA853
:1013AC0000F062FFAA4B4FF260619A69A94842F0C3
:1013BC0020029A619A69002502F020020B920B9A86
:1013CC009A69012642F004029A619A69A24C02F0D1
:1013DC0004020C920C9A9A692F4642F008029A6108
:1013EC009B69002203F008030D930D9BFFF7CAFACB
:1013FC000E230E93994B0EA999480F931095FFF756
:10140C00D9F94FF260630E9302230EA991480F96FF
:10141C0011931095FFF7CEF9924B204623604FF4B1
:10142C0060232661E361A5602573257565600E95C3
:10143C000F951095FFF78AF80EA920460F960E957A
:10144C001095FEF73FFF4FF41653874C874A204602
:10145C0084E80C000C23A5606361E5602561A5613F
:10146C00E561FFF7FFFD2A4629460720FFF702F941
:10147C000720FFF733F92A4629461220FFF7FAF81E
:10148C001220FFF72BF92A4629462520FFF7F2F800
:10149C002520FFF723F92A4629460820FFF7EAF80A
:1014AC000820FFF71BF92A4629460920FFF7E2F826
:1014BC000920FFF713F932464FF400416548FFF756
:1014CC0061FA32464FF480416248FFF75BFA3246CC
:1014DC004FF400515F48FFF755FA32464FF48051F4
:1014EC005C48FFF74FFA324620215A48FFF74AFA78
:1014FC0000F0B8FC72222046FF2640F2FF14A846EA
:10150C00A946AB465A4B5B491A705A709A70DA70FE
:10151C000422FFF7F4FD04950895079506950595AB
:10152C0000950195039500F0EDFD534BDFF87CA180
:10153C00186000F005FE514B18609AF80030002B33
:10154C0078D0012B00F0B480FEF73CFE089BC01A4B
:10155C00B0F57A7F10D309F10109FEF733FEB9F12A
:10156C003C0F04BF08F101084FF00009B8F1180F47
:10157C0008BF4FF000080890404B1B68032B08D1A4
:10158C0000F0F6FD814600F0E7FD8046002000F0FB
:10159C00C5FD3B4B1A7862B1334890F83A20222AA9
:1015AC0007D0002233491A700422FFF7A8FDFEF77A
:1015BC0009FE344B1A786AB1334A127852B12A4870
:1015CC0090F83920212A05D0002230491A700422C3
:1015DC00FFF776FD2E4B1A78B2B100221A702D4A05
:1015EC005378117892F802E0D278C81842EA0E22A9
:1015FC00904203BF284A43EA01231380012206BF0D
:10160C000122264B264B1A70264B1B78002B6DD0D3
:10161C00012B77D0184B1B68022B40F0AF80224B6C
:10162C001B78032B00F2AA80DFE813F09100C300B3
:10163C00DF00FE0002210A48FFF79EF9002883D143
:10164C00FEF7C0FD012305468AF800307CE700BF99
:10165C0000100240000C014074000020000021101A
:10166C000008014000240140A40000200038014083
:10167C00680000206C0000203000002034000020A6
:10168C00290000202E0000202800002070000020DF
:10169C002D000020E4000020400000202C00002041
:1016AC002A000020380000203C0000203B000020D5
:1016BC000221AE48FFF760F9012804BF00238AF825
:1016CC000030FEF77FFD40F6B733401B98427FF6A3
:1016DC003BAFBFF34F8FA649A64BCA6802F4E0623A
:1016EC001343CB60BFF34F8F00BFFDE7FEF76AFDDE
:1016FC00059BC01AF92805D99F48FEF79FFEFEF7F7
:10170C0061FD05909D4B1B68012B1CD19C4BB3F9C3
:10171C00002040F6E443534340F6FF7293FBF2F390
:10172C004FF47A72B3FBF2FB02FB1B326423B2FB65
:10173C00F3F103FB11230A220091B3FBF2F102FB3C
:10174C0011330191039300228E4B1A7062E7FEF75E
:10175C0039FD049BC01AC72810D9DFF854A29AF897
:10176C003930212B0AD0FEF72DFD04220490864936
:10177C005046FFF7A5FC0123844A13707F4B1B686E
:10178C00002B68DD824B1B68002B64D1FEF71AFD21
:10179C00C01B05285FD97F4B1B78002B5BD1FEF754
:1017AC0011FD7D4B1A78032A4DD8DFE802F08F80AB
:1017BC006F457A4A137843B10023137002227349A0
:1017CC000A70774A1370734A1370764A13781BB1F8
:1017DC00002313706D4A1370FEF7F4FC049BC01ABF
:1017EC00B0F57A7FCAD90323C6E76F4BB3F9002053
:1017FC0040F6E443534340F6FF7293FBF2F34FF48D
:10180C007A72B3FBF2FB02FB1B326423B2FBF3F1E3
:10181C0003FB11230A220091B3FBF2F102FB1133FB
:10182C00019103930023A7E701235A4A13705F4ADF
:10183C0013705B4A1370F5E7022203981A7000F0DC
:10184C00D9FA08240646FEF7BDFC344324B20746F9
:10185C00204600F0DBFA494B1B68002B56DD4C4B45
:10186C001B68002B52D1FEF7ADFCC01B05284DD9CF
:10187C00484B1B78002B49D0FEF7A4FC464B1A783A
:10188C00032A3BD8DFE802F06961593301221A7050
:10189C00019B23B9009B13B9BBF1000F05D0019834
:1018AC0000F0A8FA04240646CDE71020F8E7002241
:1018BC001A70009B13B9BBF1000F05D0009800F013
:1018CC0099FA02240646BEE71020F8E703221A70A4
:1018DC00BBF1000F06D0584600F08CFAC0F30E0690
:1018EC000124B0E7102000F085FA0646F8E7022242
:1018FC006F201A7000F07EFA08240646FEF762FC90
:10190C00344324B20746204600F080FA1B4B1B6878
:10191C00002B62D11E4B1B68002B5ED1FEF752FCD4
:10192C00C01B052859D9FEF74DFC1B4B1A78032A0E
:10193C004BD8DFE802F08073693F012272201A70E5
:10194C0000F058FA04240646D8E7002272201A70D8
:10195C0000F050FA02240646D0E7032245201A7004
:10196C0000F048FA01240646C8E700BF0008014011
:10197C0000ED00E00400FA057400002030000020A7
:10198C003E00002038000020680000203C000020B1
:10199C00340000202B0000203D0000202C000020F3
:1019AC003A0000202A0000204000002039000020CE
:1019BC00A400002002221A700A2399FBF3F003FB07
:1019CC00109000F017FA08240646FEF7FBFB344390
:1019DC0024B20746204600F019FAC24B1B68002BB4
:1019EC0042D1C14B1B68012B3ED1FEF7EBFBC01B58
:1019FC00052839D9FEF7E6FBBC4B1A78032A2BD8FD
:101A0C00DFE802F0605149230A20012299FBF0F033
:101A1C001A7000F0EFF904240646D6E700221A707B
:101A2C000A2398FBF3F003FB108000F0E3F9022487
:101A3C00C0F30E06C9E70A20032298FBF0F01A70D7
:101A4C0000F0D8F901240646BFE7022210201A70D4
:101A5C0000F0D0F908240646FEF7B4FB344324B258
:101A6C000746204600F0D2F99E4B1B68002B4AD14A
:101A7C009D4B1B68022B46D1FEF7A4FBC01B05280F
:101A8C0041D9FEF79FFB994B1A78032A33D8DFE82C
:101A9C0002F0796A5E25012210201A7000F0AAF972
:101AAC0004240646D8E700221A7000F055FB0A23DE
:101ABC0090FBF3F202FB130000F09CF90224C0F33C
:101ACC000E06C9E703221A7000F046FB0A2390FBAE
:101ADC00F3F000F08FF901240646BDE702221A70DC
:101AEC0000F046FB0A2390FBF3F202FB130000F01C
:101AFC0081F908240646FEF765FB344324B20746F9
:101B0C00204600F083F9774BD3F800A0BAF1000F10
:101B1C0044D1754B1B68002B40F0B38001224FF46D
:101B2C0000417348FEF72EFF01224FF480417048AC
:101B3C00FEF728FF01224FF400516D48FEF722FFFB
:101B4C0001224FF480516A48FEF71CFF36E0012257
:101B5C001A7000F00DFB0A2390FBF3F000F04AF929
:101B6C0004240646C7E700221A7000F0F5FA0A238F
:101B7C0090FBF3F202FB130000F03CF90224C0F3DB
:101B8C000E06B8E703221A7000F0E6FA0A2390FB5F
:101B9C00F3F000F02FF901240646ACE7BAF1010F7F
:101BAC0001D10022BBE7BAF1020F6AD1514B1A786E
:101BBC00012A02922AD021D3022A44D0DFF838A17C
:101BCC009AF80030012B00F09980C0F08580022B30
:101BDC007FF4A9ACFEF7F6FA079BC01AC72804D904
:101BEC00012220214248FEF7CDFE3E4B1B68012B03
:101BFC003FF799AC0022404B1A7094E401224FF449
:101C0C0000413B48FEF7BEFE00228EE7029A4FF4DD
:101C1C00004137480993FEF7B5FE029A4FF4804114
:101C2C003348FEF7AFFE029A4FF400513048FEF7EE
:101C3C00A9FE029A4FF480512D48FEF7A3FE099B92
:101C4C0083F800A0BAE7FEF7BDFA069BC01A63281A
:101C5C00B4D9FEF7B7FA4FF4004106902448FEF7CA
:101C6C0096FE4FF480412248FEF791FE4FF400514E
:101C7C001F48FEF78CFE4FF480511D48FEF787FE7F
:101C8C009CE7194BD3F800A0BAF1010F0DD15246C5
:101C9C004FF400411648FEF775FE52464FF4804152
:101CAC001348FEF76FFE002245E7BAF1020F85D10B
:101CBC0001224FF400410E48FEF764FE01224FF45E
:101CCC0080410B48FEF75EFE01224FF4005108489C
:101CDC00FEF758FE002234E7012220210448FEF7CB
:101CEC0051FE20E430000020340000203D00002094
:101CFC00000C01403A00002039000020FEF762FA87
:101D0C000022079020210348FEF73CFE02238AF8AC
:101D1C00003008E4000C014038B50268104B9A42C0
:101D2C001DD100230F4C10482370FEF751FA0F4DB4
:101D3C00288000F0E7F9012804BF0D4B187072B62B
:101D4C000C4AB5F90030C3F303215370DBB20B44DA
:101D5C001170190A9170D37062B60123237038BDCB
:101D6C000024014028000020740000203E000020C8
:101D7C0038000020700000200268164B30B59A42E3
:101D8C0013D1154B1A781C46722A0FD15A78722A25
:101D9C000CD19A78722A09D1DB78722B06D10122E8
:101DAC000E4B1A7001220E4B1A7030BD72B6002306
:101DBC0018460C4A0C4D1370D9B2042905D100B148
:101DCC00117062B60122094BEBE7E15C0120595519
:101DDC000133F1E7003801406C0000202E00002098
:101DEC00290000202F000020E40000202D000020FE
:101DFC007047000072289ABF024B33F9100002485A
:101E0C00704700BFAC22000800BFFFFF70B506464C
:101E1C000F24134D46FA04F212F0010218BF0122EE
:101E2C004FF480612846FEF7ADFD01224FF400719E
:101E3C000B48FEF7A7FD00224FF400710848FEF78F
:101E4C00A1FD14F1FF34E5D2012240210448FEF734
:101E5C0099FDBDE87040002240210148FEF792BD7B
:101E6C00000C014010B50A4C002220464FF4806152
:101E7C00FEF788FD204600224FF40071FEF782FD2C
:101E8C002046BDE8104000224021FEF77BBD00BF7C
:101E9C00000C01400E4B82B09A6942F001029A612B
:101EAC009A6902F001020092009ADA6942F08052BB
:101EBC00DA61DB69074A03F080530193019B536895
:101ECC0023F0E06343F00073536002B0704700BF2F
:101EDC00001002400000014010B5044686B01022EC
:101EEC00002102A800F0C0F92268104B9A421BD1C5
:101EFC0003F56C439A6902A942F400729A619A69DB
:101F0C000B4802F400720092009A9A6942F00402A3
:101F1C009A619B6903F004030193019B01230293D3
:101F2C0003230393FEF746FC06B010BD00240140CA
:101F3C000008014010B5044686B01022002102A80A
:101F4C0000F092F92268174B9A4228D103F55843B6
:101F5C009A6902A942F480429A619A69124802F481
:101F6C0080420092009A9A6942F004029A619B693D
:101F7C0003F004030193019B4FF4007302930223BB
:101F8C00039303230593FEF715FC4FF48063029330
:101F9C00002302A9044803930493FEF70BFC06B03C
:101FAC0010BD00BF00380140000801407047FEE73B
:101FBC00FEE7FEE7FEE7704770477047FEF7F6B89E
:101FCC0010B5FEF7FFF8104C2368C01AFA2815D983
:101FDC00FEF7F8F8022120600C48FEF7CDFC68B93A
:101FEC000B4B1B7803F0FF0143B90A4A13780133FA
:101FFC00DBB213701378022B88BF11700220BDE87E
:10200C001040FEF7CBBC00BF480000200008014088
:10201C00430000204200002010B5FEF7D3F8104C0E
:10202C002368C01AFA2815D9FEF7CCF804212060D1
:10203C000C48FEF7A1FC68B90B4B1B7803F0FF01B1
:10204C0043B90A4A13780133DBB213701378032BAC
:10205C0088BF11700420BDE81040FEF79FBC00BF84
:10206C004C000020000801404200002043000020EA
:10207C0010B5FEF7A7F8184C2368C01AFA2826D911
:10208C00FEF7A0F8082120601448FEF775FC60B933
:10209C00134B1B78012B08D1124A13780133DBB296
:1020AC0013701378172B88BF107008210B48FEF79C
:1020BC0063FC60B90A4B1B78022B08D10A4A1378CF
:1020CC000133DBB2137013783B2B88BF10700820E0
:1020DC00BDE81040FEF762BC500000200008014033
:1020EC004300002044000020450000200148FEF77A
:1020FC0073B800BF740000200148FFF767B800BF39
:10210C00A400002072B6034B1A78034B1A6062B617
:10211C0018687047420000205400002072B6032853
:10212C00064B03DD03221A7062B67047002801DAF1
:10213C000022F8E7C0B21870F6E700BF4300002099
:10214C0072B6034B1A78034B1A6062B61868704764
:10215C00430000205800002072B6034B1A78034B42
:10216C001A6062B618687047440000205C000020BA
:10217C0072B6034B1A78034B1A6062B61868704734
:10218C0045000020600000200F4B1A6842F001024D
:10219C001A6059680D4A0A405A601A6822F0847213
:1021AC0022F480321A601A6822F480221A605A686B
:1021BC0022F4FE025A604FF41F029A604FF0006244
:1021CC00034B9A60704700BF001002400000FFF8FC
:1021DC0000ED00E0002103E00B4B5B584350043151
:1021EC000A480B4B42189A42F6D30A4A02E00023E3
:1021FC0042F8043B084B9A42F9D3FFF7C5FF00F0B5
:10220C000FF8FFF7C3F87047B42300080000002054
:10221C000C0000200C000020E8000020FEE700006D
:10222C0070B500250C4E0D4CA41BA410A54209D171
:10223C0000F022F800250A4E0A4CA41BA410A5425B
:10224C0005D170BD56F8253098470135EEE756F8A4
:10225C00253098470135F2E7AC230008AC23000881
:10226C00AC230008B023000803460244934200D17B
:10227C00704703F8011BF9E7F8B500BFF8BC08BCC0
:10228C009E467047F8B500BFF8BC08BC9E46704728
:10229C0002030405060708090A0B0C0D0E0F10109B
:1022AC0000C000F900A400B000990092008200F870
:1022BC00008000900088008300C600A10086008E7C
:1022CC0000FF00BF00BF00BF00BF00BF00BF00BFCA
:1022DC0000BF00BF00BF00BF00BF00BF00BF00BFFA
:1022EC0000BF00BF00BF00BF00BF00BF00BF00BFEA
:1022FC0000BF00BF00BF00BF00BF00BF00BF00BFDA
:10230C0000BF00BF00BF00BF00BF00BF00BF00BFC9
:10231C0000BF00BF00BF00BF00BF00BF00BF00BFB9
:10232C0000BF00BF00BF00BF00BF008600BF00BFE2
:10233C0000BF00BF00BF00BF00BF00BF00BF00BF99
:10234C0000BF00BF00BF00BF00BF00BF00BF00BF89
:10235C0000BF00BF00BF00BF00BF00BF00BF00BF79
:10236C0000BF00BF00BF00BF00BF00BF00BF00BF69
:10237C0000BF00BF00BF00BF00BF00BF00BF00A375
:10238C0000BF00BF00AF0000000000000000010211
:10239C000304060708090000000001020304000002
:0423AC0031010008F3
:0423B0000D01000813
:0C23B40001000000100000000024F400F4
:04000005080021E1ED
:00000001FF
